:060000000A128A110C280F
:10000800FE00030EF2000A08F3000A128A111528EE
:100018000A128A110F28F701F80183010A128A11BE
:10002800FC28831203130C1F1A281B287A281F0C7C
:10003800F000700C0F39003A031D232824284928A2
:100048001E08F0000310700C7C3E95001E08013954
:10005800F000F00EF00D17087006DF3970069700F3
:10006800831603131E08F00007300310F00CFF3E40
:10007800031D39287008F100F10E831203131708C5
:100088007106EF397106970079281F0CF000700C83
:100098000F39013A031D5128522877281E08F0000D
:1000A8000310700C7C3E9B001E080139F000F00E16
:1000B800F00D1D087006DF3970069D0083160313C6
:1000C8001E08F00007300310F00CFF3E031D6728E0
:1000D8007008F100F10E831203131D087106EF3941
:1000E80071069D0079281E08F7000C130B1D7D284A
:1000F8007E288E280130F0007008F807770878020B
:100108000318872888288A2808148B28081006309E
:1001180081000B1173088A00720E8300FE0E7E0E9A
:1001280009000730831603178800890103308316F6
:1001380003138500831203138501831603138801B3
:100148008312031388017030831603138F040F146E
:100158009F131F129F12831203131F083F39803801
:100168009F00C3309F051F142130F400F40BBA28F8
:1001780083160313071587143F308312031397055B
:100188001708F0390C3897001D08F0390C389D0015
:100198000F309500CF3097050F309B009D121D1230
:1001A80083160313811281110108F839033881007D
:1001B8000630831203138100FF3083160313920065
:1001C800033083120313920412158C108C1CED2833
:1001D800EE28EA288C1083160313071187108B1753
:1001E8000B170C178B16831203130C130B11080033
:1001F8000A128A1195200A128A11831203139F1872
:100208000629072901291F0CF500750C0F39003A3A
:10021800031D0F29102915291F08C33904389F0009
:1002280025291F0CF500750C0F39013A031D1D29EE
:100238001E2923291F08C33908389F002529C330E0
:100248009F050330F6009730F500F50B2929F60BCA
:1002580029292E29831203139F1401290A128A11AE
:020268000C2860
:08400000FF3FFF3FFF3FFF3FC0
:04400E00D420FF3F7C
:00000001FF
